:100000000C9434000C9451000C9451000C94510049
:100010000C9451000C9451000C9451000C9451001C
:100020000C9451000C9451000C9451000C9451000C
:100030000C9451000C9451000C9480010C945100CC
:100040000C9451000C9451000C94A5010C94510097
:100050000C9451000C9451000C9451000C945100DC
:100060000C9451000C94510011241FBECFEFD8E026
:10007000DEBFCDBF11E0A0E0B1E0E6EAFBE002C0E8
:1000800005900D92AE33B107D9F711E0AEE3B1E0C0
:1000900001C01D92A538B107E1F70E9455000C94EC
:1000A000D1050C94000008950895CF92DF92EF924D
:1000B000FF920F931F93DF93CF93CDB7DEB7C0545A
:1000C000D0400FB6F894DEBF0FBECDBF60E875E23A
:1000D00080E090E00E94D10190E9C92E91E0D92EF4
:1000E0008E010F5F1F4F8BE1E82E81E0F82E80E03C
:1000F00091E00E94FC010E94F1018823E1F388EE67
:1001000093E0F6013197F1F70197D9F70E945F026A
:1001100000D000D000D0EDB7FEB73196ADB7BEB776
:1001200012961C930E931197F382E282992787FD12
:100130009095958384830E94F9028DB79EB70696A9
:100140000FB6F8949EBF0FBE8DBFC8010E94FC0180
:1001500080E291E00E94FC010E94F1018823E1F31A
:1001600088EE93E0F6013197F1F70197D9F70E94F5
:100170005F0200D000D000D0EDB7FEB73196ADB72A
:10018000BEB712961C930E931197F382E2829927C1
:1001900087FD9095958384830E94F9028DB79EB761
:1001A00006960FB6F8949EBF0FBE8DBFC8010E9481
:1001B000FC0189E291E00E94FC010E94F101882388
:1001C000E1F388EE93E0F6013197F1F70197D9F763
:1001D0000E945F0200D000D000D0EDB7FEB731968C
:1001E000ADB7BEB712961C930E931197F382E282BD
:1001F000992787FD9095958384830E94F9028DB796
:100200009EB706960FB6F8949EBF0FBE8DBFC8016D
:100210000E94FC018CE291E00E94FC018FE291E0DF
:100220000E94FC010E94F1018823E1F388EE93E033
:10023000F6013197F1F70197D9F70E945F0200D0DC
:1002400000D000D0EDB7FEB73196ADB7BEB712966D
:100250001C930E931197F382E282992787FD909564
:10026000958384830E94F9028DB79EB706960FB6D8
:10027000F8949EBF0FBE8DBFC8010E94FC0137CF0E
:10028000EF92FF920F931F937B018C0120913E010F
:1002900030913F01409140015091410180913E01D8
:1002A00090913F01A0914001B0914101821B930BBD
:1002B000A40BB50B8E159F05A007B10778F320910D
:1002C0003E0130913F014091400150914101B901FF
:1002D000CA011F910F91FF90EF90089582E084BDB5
:1002E00093E095BD99EF97BD80936E007894089543
:1002F0009B01AC015695479537952795C9010895FF
:100300001F920F920FB60F9211248F939F93AF936A
:10031000BF9380913E0190913F01A0914001B09127
:1003200041010196A11DB11D80933E0190933F01B3
:10033000A0934001B0934101BF91AF919F918F91E4
:100340000F900FBE0F901F9018951F920F920FB62F
:100350000F9211248F939F93EF93FF938091440109
:100360009091C600E82FF0E0EB5BFE4F90838F5F2B
:1003700080934401809144018F7380934401809164
:100380004201803428F4809142018F5F80934201C2
:10039000FF91EF919F918F910F900FBE0F901F9043
:1003A00018959B01AC0180E28093C00088E980939E
:1003B000C10086E08093C20084E0220F331F441FF7
:1003C000551F8A95D1F760E074E284EF90E00E94B7
:1003D000D702215030403093C5002093C400789458
:1003E0000895809142010895982F8091C00085FF63
:1003F000FCCF9093C6000895FC0107C08091C00017
:1004000085FFFCCF9093C600319690819923B1F778
:1004100008959C01F9012F5F3F4F9491992339F082
:100420008091C00085FFFCCF9093C600F3CF089564
:1004300080914201882311F4EFEF14C080914301B1
:10044000E82FF0E0EB5BFE4FE0818F5F809343018C
:10045000809143018F7380934301809142018150C9
:10046000809342018E2F0895EF92FF921F93CF93B6
:10047000DF937C0110E006C00E941802CE0DDF1D44
:1004800088831F5F80914201C12FD0E08823A1F7AC
:10049000CE0DDF1D1882812FDF91CF911F91FF902C
:1004A000EF90089580914201882311F48FEF089511
:1004B000E0914301F0E0EB5BFE4F808108951F93D4
:1004C000CF93DF9302C00E941802809142018823DB
:1004D00041F0E0914301F0E0EB5BFE4F808180331F
:1004E00064F480914201882371F3E0914301F0E0CC
:1004F000EB5BFE4F80818D3231F780914201882382
:1005000041F0E0914301F0E0EB5BFE4F80818A33E4
:10051000D4F680914201882361F0E0914301F0E03C
:10052000EB5BFE4F80818D3221F40E9418021FEF99
:1005300001C011E0C0E0D0E012C00E9418029E018C
:1005400043E0220F331F4A95E1F7CC0FDD1FC20FA6
:10055000D31FE097992787FD9095C80FD91F8091E9
:1005600042018823A1F0E0914301F0E0EB5BFE4FF4
:100570008081803364F0809142018823F1F2E09120
:100580004301F0E0EB5BFE4F80818A33B4F2812FB0
:10059000992787FD9095C89F9001C99F300DD89FDE
:1005A000300D1124C901DF91CF911F910895A1E26F
:1005B0001A2EAA1BBB1BFD010DC0AA1FBB1FEE1FDD
:1005C000FF1FA217B307E407F50720F0A21BB30B28
:1005D000E40BF50B661F771F881F991F1A9469F7A4
:1005E00060957095809590959B01AC01BD01CF0100
:1005F0000895AEE0B0E0EFEFF2E00C94A8050D89AD
:100600001E8986E08C831A8309838FEF9FE79E8380
:100610008D839E01275E3F4FCE0101966F89788DB5
:10062000A9010E941D032F813885020F131FF801B5
:1006300010822E96E4E00C94C405ABE0B0E0E3E257
:10064000F3E00C949A053C012B015A01FC0117823E
:100650001682838181FD03C06FEF7FEFC6C19AE0F0
:10066000892E1E010894211C311CF3012381F20103
:1006700023FD859123FF81912F01882309F4B2C1C5
:10068000853239F423FD859123FF81912F01853235
:1006900029F490E0B3010E941005E7CF982FFF24C2
:1006A000EE249924FFE1FF15D0F09B3269F09C32D3
:1006B00028F4903259F0933291F40EC09D3249F0F3
:1006C000903369F441E024C052E0F52A84E0F82A2E
:1006D00028C098E0F92A25C0E0E1FE2A22C0F7FCF4
:1006E00029C0892F80538A3070F4F6FE05C0989C8B
:1006F000902C1124980E15C0E89CE02C1124E80ED3
:10070000F0E2FF2A0EC09E3229F4F6FC6BC140E4F1
:10071000F42A07C09C3619F450E8F52A02C098362E
:1007200049F4F20123FD959123FF91912F01992323
:1007300009F0B8CF892F8554833018F08052833068
:1007400038F444E050E0A40EB51E5FE359830FC0B7
:10075000933631F0933779F0933509F056C020C0C5
:10076000F5018081898342E050E0A40EB51E61014D
:1007700001E010E012C0F501C080D180F6FC03C09A
:100780006FEF7FEF02C0692D70E042E050E0A40EF1
:10079000B51EC6010E9405058C015FE7F52214C055
:1007A000F501C080D180F6FC03C06FEF7FEF02C07F
:1007B000692D70E042E050E0A40EB51EC6010E9413
:1007C000FA048C0150E8F52AF3FE07C01AC080E253
:1007D00090E0B3010E941005EA948E2D90E0081776
:1007E0001907A8F30EC0F601F7FC8591F7FE819179
:1007F0006F0190E0B3010E941005E110EA940150EE
:1008000010400115110579F7EAC0943611F09936B8
:1008100069F5F7FE08C0F5012081318142815381DD
:1008200084E090E00AC0F501808191819C01442719
:1008300037FD4095542F82E090E0A80EB91E9FE648
:10084000F92257FF09C050954095309521953F4FAB
:100850004F4F5F4FE0E8FE2ACA01B901A1012AE02B
:1008600030E00E943C05D82ED21840C0953729F4BC
:100870001F2D1F7E2AE030E01DC01F2D197F9F36DF
:1008800061F0903720F4983509F0ACC00FC0903774
:1008900039F0983709F0A6C004C028E030E00AC05B
:1008A000106114FD146020E130E004C014FD1660F6
:1008B00020E132E017FF08C0F5016081718182817B
:1008C000938144E050E008C0F50180819181BC0132
:1008D00080E090E042E050E0A40EB51EA1010E942D
:1008E0003C05D82ED2188FE7F82EF122F6FE0BC069
:1008F0005EEFF522D91438F4F4FE07C0F2FC05C00F
:100900008FEEF82202C01D2D01C0192DF4FE0DC07E
:10091000FE01ED0DF11D8081803319F499EEF9226D
:1009200008C01F5FF2FE05C003C08F2D867809F056
:100930001F5F0F2DF3FC14C0F0FE0FC01E1510F04A
:100940009D2C0BC09D2C9E0C911A1E2D06C080E282
:1009500090E0B3010E9410051F5F1E15C0F304C094
:100960001E1510F4E11A01C0EE2404FF0FC080E34D
:1009700090E0B3010E94100502FF1DC001FD03C0FD
:1009800088E790E00EC088E590E00BC0802F867865
:1009900091F001FF02C08BE201C080E2F7FC8DE222
:1009A00090E0B3010E94100506C080E390E0B3011F
:1009B0000E9410059A94D914C0F3DA94F101ED0D58
:1009C000F11D808190E0B3010E941005DD20A9F7A0
:1009D00006C080E290E0B3010E941005EA94EE2088
:1009E000C1F743CEF30166817781CB012B96E2E11B
:1009F0000C94B605FC010590615070400110D8F7C9
:100A0000809590958E0F9F1F0895FC016150704056
:100A100001900110D8F7809590958E0F9F1F089533
:100A20000F931F93CF93DF938C01EB018B8181FF99
:100A30001BC082FF0DC02E813F818C819D812817B4
:100A4000390764F4E881F9810193F983E88306C0EA
:100A5000E885F985802F0995892B31F48E819F8156
:100A600001969F838E8302C00FEF1FEFC801DF91B5
:100A7000CF911F910F910895FA01AA27283051F1C3
:100A8000203181F1E8946F936E7F6E5F7F4F8F4FBF
:100A90009F4FAF4FB1E03ED0B4E03CD0670F781F1E
:100AA000891F9A1FA11D680F791F8A1F911DA11D03
:100AB0006A0F711D811D911DA11D20D009F468943C
:100AC0003F912AE0269F11243019305D3193DEF6E4
:100AD000CF010895462F4770405D4193B3E00FD09A
:100AE000C9F7F6CF462F4F70405D4A3318F0495D85
:100AF00031FD4052419302D0A9F7EACFB4E0A69568
:100B00009795879577956795BA95C9F70097610589
:100B1000710508959B01AC010A2E069457954795DF
:100B200037952795BA95C9F7620F731F841F951FD4
:100B3000A01D08952F923F924F925F926F927F92E5
:100B40008F929F92AF92BF92CF92DF92EF92FF92DD
:100B50000F931F93CF93DF93CDB7DEB7CA1BDB0B89
:100B60000FB6F894DEBF0FBECDBF09942A8839882E
:100B700048885F846E847D848C849B84AA84B98435
:100B8000C884DF80EE80FD800C811B81AA81B98141
:100B9000CE0FD11D0FB6F894DEBF0FBECDBFED0155
:060BA0000895F894FFCF58
:100BA600556E6573697465207072766920656C652B
:100BB6006D656E74206E697A6120002564200000E0
:100BC60072617A6C696B613A006E3A000D0A006ECA
:0E0BD6002D746920656C656D656E743A0000C3
:00000001FF
